{
  "_format": "hh-sol-artifact-1",
  "contractName": "CrowdsourcedFunding",
  "sourceName": "contracts/CrowdsourcedFunding.sol",
  "abi": [
    {
      "inputs": [],
      "stateMutability": "nonpayable",
      "type": "constructor"
    },
    {
      "anonymous": false,
      "inputs": [
        {
          "indexed": true,
          "internalType": "address",
          "name": "contributor",
          "type": "address"
        },
        {
          "indexed": false,
          "internalType": "uint256",
          "name": "amount",
          "type": "uint256"
        }
      ],
      "name": "ContributionAdded",
      "type": "event"
    },
    {
      "anonymous": false,
      "inputs": [
        {
          "indexed": true,
          "internalType": "address",
          "name": "creator",
          "type": "address"
        },
        {
          "indexed": false,
          "internalType": "string",
          "name": "title",
          "type": "string"
        },
        {
          "indexed": false,
          "internalType": "uint256",
          "name": "goalAmount",
          "type": "uint256"
        }
      ],
      "name": "ProjectCreated",
      "type": "event"
    },
    {
      "anonymous": false,
      "inputs": [
        {
          "indexed": true,
          "internalType": "address",
          "name": "creator",
          "type": "address"
        },
        {
          "indexed": false,
          "internalType": "uint256",
          "name": "amount",
          "type": "uint256"
        },
        {
          "indexed": false,
          "internalType": "uint256",
          "name": "nftTokenId",
          "type": "uint256"
        }
      ],
      "name": "ProjectFunded",
      "type": "event"
    },
    {
      "inputs": [
        {
          "internalType": "uint256",
          "name": "_projectId",
          "type": "uint256"
        }
      ],
      "name": "contribute",
      "outputs": [],
      "stateMutability": "payable",
      "type": "function"
    },
    {
      "inputs": [
        {
          "internalType": "uint256",
          "name": "",
          "type": "uint256"
        },
        {
          "internalType": "address",
          "name": "",
          "type": "address"
        }
      ],
      "name": "contributions",
      "outputs": [
        {
          "internalType": "uint256",
          "name": "",
          "type": "uint256"
        }
      ],
      "stateMutability": "view",
      "type": "function"
    },
    {
      "inputs": [
        {
          "internalType": "string",
          "name": "_title",
          "type": "string"
        },
        {
          "internalType": "uint256",
          "name": "_goalAmount",
          "type": "uint256"
        },
        {
          "internalType": "uint256",
          "name": "_nftTokenId",
          "type": "uint256"
        }
      ],
      "name": "createProject",
      "outputs": [],
      "stateMutability": "nonpayable",
      "type": "function"
    },
    {
      "inputs": [
        {
          "internalType": "uint256",
          "name": "_projectId",
          "type": "uint256"
        }
      ],
      "name": "getProject",
      "outputs": [
        {
          "internalType": "address",
          "name": "creator",
          "type": "address"
        },
        {
          "internalType": "string",
          "name": "title",
          "type": "string"
        },
        {
          "internalType": "uint256",
          "name": "goalAmount",
          "type": "uint256"
        },
        {
          "internalType": "uint256",
          "name": "currentAmount",
          "type": "uint256"
        },
        {
          "internalType": "uint256",
          "name": "contributorsCount",
          "type": "uint256"
        }
      ],
      "stateMutability": "view",
      "type": "function"
    },
    {
      "inputs": [],
      "name": "getProjectCount",
      "outputs": [
        {
          "internalType": "uint256",
          "name": "",
          "type": "uint256"
        }
      ],
      "stateMutability": "view",
      "type": "function"
    },
    {
      "inputs": [],
      "name": "nftContract",
      "outputs": [
        {
          "internalType": "contract NFT",
          "name": "",
          "type": "address"
        }
      ],
      "stateMutability": "view",
      "type": "function"
    },
    {
      "inputs": [
        {
          "internalType": "uint256",
          "name": "",
          "type": "uint256"
        }
      ],
      "name": "projects",
      "outputs": [
        {
          "internalType": "address",
          "name": "creator",
          "type": "address"
        },
        {
          "internalType": "string",
          "name": "title",
          "type": "string"
        },
        {
          "internalType": "uint256",
          "name": "goalAmount",
          "type": "uint256"
        },
        {
          "internalType": "uint256",
          "name": "currentAmount",
          "type": "uint256"
        },
        {
          "internalType": "uint256",
          "name": "contributorsCount",
          "type": "uint256"
        },
        {
          "internalType": "uint256",
          "name": "nftTokenId",
          "type": "uint256"
        }
      ],
      "stateMutability": "view",
      "type": "function"
    }
  ],
  "bytecode": "0x608060405234801561001057600080fd5b5060405161001d9061007e565b604051809103906000f080158015610039573d6000803e3d6000fd5b506000806101000a81548173ffffffffffffffffffffffffffffffffffffffff021916908373ffffffffffffffffffffffffffffffffffffffff16021790555061008a565b605c8061107f83390190565b610fe6806100996000396000f3fe6080604052600436106100705760003560e01c8063c1cbbca71161004e578063c1cbbca71461011f578063d56d229d1461013b578063f0f3f2c814610166578063f3a6ac5f146101a757610070565b8063107046bd146100755780633bcff3b0146100b75780633d891f59146100e2575b600080fd5b34801561008157600080fd5b5061009c600480360381019061009791906109da565b6101d0565b6040516100ae96959493929190610b45565b60405180910390f35b3480156100c357600080fd5b506100cc6102c4565b6040516100d99190610c38565b60405180910390f35b3480156100ee57600080fd5b5061010960048036038101906101049190610a03565b6102d1565b6040516101169190610c38565b60405180910390f35b610139600480360381019061013491906109da565b6102f6565b005b34801561014757600080fd5b5061015061054d565b60405161015d9190610bad565b60405180910390f35b34801561017257600080fd5b5061018d600480360381019061018891906109da565b610571565b60405161019e959493929190610aeb565b60405180910390f35b3480156101b357600080fd5b506101ce60048036038101906101c99190610973565b6106e5565b005b600281815481106101e057600080fd5b90600052602060002090600602016000915090508060000160009054906101000a900473ffffffffffffffffffffffffffffffffffffffff169080600101805461022990610de6565b80601f016020809104026020016040519081016040528092919081815260200182805461025590610de6565b80156102a25780601f10610277576101008083540402835291602001916102a2565b820191906000526020600020905b81548152906001019060200180831161028557829003601f168201915b5050505050908060020154908060030154908060040154908060050154905086565b6000600280549050905090565b6001602052816000526040600020602052806000526040600020600091509150505481565b600280549050811061033d576040517f08c379a000000000000000000000000000000000000000000000000000000000815260040161033490610c18565b60405180910390fd5b600060028281548110610379577f4e487b7100000000000000000000000000000000000000000000000000000000600052603260045260246000fd5b9060005260206000209060060201905080600201548160030154106103d3576040517f08c379a00000000000000000000000000000000000000000000000000000000081526004016103ca90610bf8565b60405180910390fd5b346001600084815260200190815260200160002060003373ffffffffffffffffffffffffffffffffffffffff1673ffffffffffffffffffffffffffffffffffffffff16815260200190815260200160002060008282546104339190610cee565b925050819055503481600301600082825461044e9190610cee565b9250508190555080600401600081548092919061046a90610e49565b91905055503373ffffffffffffffffffffffffffffffffffffffff167fd0b96b298aea05811b09b9215e36aa7083859763d1ec4cdc17604d0005d59575346040516104b59190610c38565b60405180910390a28060020154816003015410610549578060000160009054906101000a900473ffffffffffffffffffffffffffffffffffffffff1673ffffffffffffffffffffffffffffffffffffffff167f4c8534b1ece6a3813feb913c90298a3580dfb9ff163668c9f2ee6f41002e6da682600301548360050154604051610540929190610c53565b60405180910390a25b5050565b60008054906101000a900473ffffffffffffffffffffffffffffffffffffffff1681565b60006060600080600060028054905086106105c1576040517f08c379a00000000000000000000000000000000000000000000000000000000081526004016105b890610c18565b60405180910390fd5b6000600287815481106105fd577f4e487b7100000000000000000000000000000000000000000000000000000000600052603260045260246000fd5b906000526020600020906006020190508060000160009054906101000a900473ffffffffffffffffffffffffffffffffffffffff168160010182600201548360030154846004015483805461065190610de6565b80601f016020809104026020016040519081016040528092919081815260200182805461067d90610de6565b80156106ca5780601f1061069f576101008083540402835291602001916106ca565b820191906000526020600020905b8154815290600101906020018083116106ad57829003601f168201915b50505050509350955095509550955095505091939590929450565b60006040518060c001604052803373ffffffffffffffffffffffffffffffffffffffff1681526020018581526020018481526020016000815260200160008152602001838152509050600281908060018154018082558091505060019003906000526020600020906006020160009091909190915060008201518160000160006101000a81548173ffffffffffffffffffffffffffffffffffffffff021916908373ffffffffffffffffffffffffffffffffffffffff16021790555060208201518160010190805190602001906107bd92919061083e565b5060408201518160020155606082015181600301556080820151816004015560a0820151816005015550503373ffffffffffffffffffffffffffffffffffffffff167f14d412ab7f17dd4a99523bcd692333c46877e622687304dabefc4ba03dd0399e8585604051610830929190610bc8565b60405180910390a250505050565b82805461084a90610de6565b90600052602060002090601f01602090048101928261086c57600085556108b3565b82601f1061088557805160ff19168380011785556108b3565b828001600101855582156108b3579182015b828111156108b2578251825591602001919060010190610897565b5b5090506108c091906108c4565b5090565b5b808211156108dd5760008160009055506001016108c5565b5090565b60006108f46108ef84610ca1565b610c7c565b90508281526020810184848401111561090c57600080fd5b610917848285610da4565b509392505050565b60008135905061092e81610f82565b92915050565b600082601f83011261094557600080fd5b81356109558482602086016108e1565b91505092915050565b60008135905061096d81610f99565b92915050565b60008060006060848603121561098857600080fd5b600084013567ffffffffffffffff8111156109a257600080fd5b6109ae86828701610934565b93505060206109bf8682870161095e565b92505060406109d08682870161095e565b9150509250925092565b6000602082840312156109ec57600080fd5b60006109fa8482850161095e565b91505092915050565b60008060408385031215610a1657600080fd5b6000610a248582860161095e565b9250506020610a358582860161091f565b9150509250929050565b610a4881610d44565b82525050565b610a5781610d80565b82525050565b6000610a6882610cd2565b610a728185610cdd565b9350610a82818560208601610db3565b610a8b81610f1f565b840191505092915050565b6000610aa3601383610cdd565b9150610aae82610f30565b602082019050919050565b6000610ac6601283610cdd565b9150610ad182610f59565b602082019050919050565b610ae581610d76565b82525050565b600060a082019050610b006000830188610a3f565b8181036020830152610b128187610a5d565b9050610b216040830186610adc565b610b2e6060830185610adc565b610b3b6080830184610adc565b9695505050505050565b600060c082019050610b5a6000830189610a3f565b8181036020830152610b6c8188610a5d565b9050610b7b6040830187610adc565b610b886060830186610adc565b610b956080830185610adc565b610ba260a0830184610adc565b979650505050505050565b6000602082019050610bc26000830184610a4e565b92915050565b60006040820190508181036000830152610be28185610a5d565b9050610bf16020830184610adc565b9392505050565b60006020820190508181036000830152610c1181610a96565b9050919050565b60006020820190508181036000830152610c3181610ab9565b9050919050565b6000602082019050610c4d6000830184610adc565b92915050565b6000604082019050610c686000830185610adc565b610c756020830184610adc565b9392505050565b6000610c86610c97565b9050610c928282610e18565b919050565b6000604051905090565b600067ffffffffffffffff821115610cbc57610cbb610ef0565b5b610cc582610f1f565b9050602081019050919050565b600081519050919050565b600082825260208201905092915050565b6000610cf982610d76565b9150610d0483610d76565b9250827fffffffffffffffffffffffffffffffffffffffffffffffffffffffffffffffff03821115610d3957610d38610e92565b5b828201905092915050565b6000610d4f82610d56565b9050919050565b600073ffffffffffffffffffffffffffffffffffffffff82169050919050565b6000819050919050565b6000610d8b82610d92565b9050919050565b6000610d9d82610d56565b9050919050565b82818337600083830152505050565b60005b83811015610dd1578082015181840152602081019050610db6565b83811115610de0576000848401525b50505050565b60006002820490506001821680610dfe57607f821691505b60208210811415610e1257610e11610ec1565b5b50919050565b610e2182610f1f565b810181811067ffffffffffffffff82111715610e4057610e3f610ef0565b5b80604052505050565b6000610e5482610d76565b91507fffffffffffffffffffffffffffffffffffffffffffffffffffffffffffffffff821415610e8757610e86610e92565b5b600182019050919050565b7f4e487b7100000000000000000000000000000000000000000000000000000000600052601160045260246000fd5b7f4e487b7100000000000000000000000000000000000000000000000000000000600052602260045260246000fd5b7f4e487b7100000000000000000000000000000000000000000000000000000000600052604160045260246000fd5b6000601f19601f8301169050919050565b7f476f616c20616d6f756e74207265616368656400000000000000000000000000600082015250565b7f496e76616c69642070726f6a6563742049440000000000000000000000000000600082015250565b610f8b81610d44565b8114610f9657600080fd5b50565b610fa281610d76565b8114610fad57600080fd5b5056fea2646970667358221220c97d57e3d9b282fe255886fd2b5592b0077541a0cd994afa2b669c3893dfc57664736f6c634300080400336080604052348015600f57600080fd5b50603f80601d6000396000f3fe6080604052600080fdfea26469706673582212207762a20c68f1b608ed7ebcd236caf98851579a087e9bd1de08b237b5765732ee64736f6c63430008040033",
  "linkReferences": {},
  "deployedLinkReferences": {}
}